:1000000014C1000040C100003EC100003CC100001E
:100010003AC1000038C1000036C1000034C1000000
:1000200032C1000030C100002EC100002CC1000010
:100030002AC1000028C1000026C1000024C1000020
:1000400022C1000020C100001EC100001CC1000030
:100050001AC1000018C1000016C10000D2C3000080
:1000600012C1000041C4000016C400000CC1000011
:100070000AC1000008C1000006C1000004C1000060
:1000800002C1000000C10000FEC00000FCC0000072
:10009000FAC00000F8C00000F6C00000F4C0000084
:1000A000F2C00000F0C00000EEC00000ECC0000094
:1000B000EAC00000E8C00000E6C00000E4C00000A4
:1000C000E2C00000E0C00000DEC00000DCC00000B4
:1000D000DAC00000D8C00000D6C00000D4C00000C4
:1000E000D2C00000F001F301E201E601EC012A02B6
:1000F000F701FB010102050209020F0213021702B8
:100100002A021D02210225020000210024002700EE
:100110002A002D0030003300010100000401070116
:100120000A0100002200250028002B002E003100CB
:10013000340002010000050108010B01000020004D
:100140002300260029002C002F00320000010000AF
:10015000030106010901050505050705080808084A
:10016000020202020A0A080804040404010101014F
:10017000010101010303030303030303040707074A
:100180000C0C0C0C0C0C0C0C0202020206060606EF
:10019000060606060B0B0B0B0B0B0B0B01021020BC
:1001A00020080810204010204080020102010804AD
:1001B0000201010204081020408080402010080441
:1001C000020180040201804020100804020108049A
:1001D00002010102040810204080010204081020DE
:1001E000408000000A0B02090C0D0E0807030401F1
:1001F00000000000000000000000000000000000FF
:1002000000000000000000000000000000001211CB
:1002100010000000000000000000000000000000CE
:100220000000000000000000AA0411241FBECFEF50
:10023000D1E2DEBFCDBF00E00CBF12E0A0E0B2E033
:10024000ECE5FEE000E00BBF02C007900D92A83382
:10025000B107D9F723E0A8E3B2E001C01D92AD34A5
:10026000B207E1F711E0C5E1D1E000E005C0219758
:100270000109802FFE01E4D5C431D10780E00807D1
:10028000B1F7F5D3E9C5BCCE96E0899FD001112422
:10029000A252BD4F90967C936E935F9791E091969A
:1002A0009C93919790914A03E0914B03F0914C03FA
:1002B000992339F0309751F0811108C08091FA02EA
:1002C00004C0309719F05C968C9119940895CF92E0
:1002D000DF92EF92FF920F931F9396E0899FF001B8
:1002E0001124E252FD4F11A2278D30A1213031059A
:1002F00031F158F02230310509F446C02330310580
:1003000009F04DC060E070E043C0662309F447C0C7
:1003100061E070E0B9DF2FB7F89480913D029091D1
:100320003E02A0913F02B09140022FBF809336035E
:1003300090933703A0933803B093390330C09FB72D
:10034000F894C0903D02D0903E02E0903F02F090C1
:1003500040029FBF0091360310913703209138036C
:1003600030913903C01AD10AE20AF30A0091480316
:100370001091490320E030E00C151D052E053F05C6
:1003800018F462E070E004C0611109C063E070E03D
:100390001F910F91FF90EF90DF90CF9075CF1F913D
:1003A0000F91FF90EF90DF90CF90089590E0FC01C7
:1003B0003197E231F10508F04DC08827EE58FF4F24
:1003C0008F4F3EC5809180008F7703C08091800061
:1003D0008F7D80938000089580918000877FF9CF82
:1003E00084B58F7702C084B58F7D84BD08958091D8
:1003F000B0008F7703C08091B0008F7D8093B000F4
:100400000895809190008F7707C0809190008F7D34
:1004100003C080919000877F809390000895809121
:10042000A0008F7707C08091A0008F7D03C08091CE
:10043000A000877F8093A0000895809120018F778E
:1004400007C0809120018F7D03C080912001877FAC
:10045000809320010895CF93DF93282F30E0F90196
:10046000EE51FE4F8491F901E456FE4FD491F9010B
:10047000EA5AFE4FC491CC2389F0811197DFEC2F0B
:10048000F0E0EE0FFF1FE45CFE4FA591B491EC91FC
:10049000ED2381E090E021F480E002C080E090E074
:1004A000DF91CF9108951F93CF93DF93282F30E0F2
:1004B000F901EE51FE4F8491F901E456FE4FD491BB
:1004C000F901EA5AFE4FC491CC23B9F0162F8111DD
:1004D0006DDFEC2FF0E0EE0FFF1FEE5DFE4FA591FC
:1004E000B4919FB7F894111104C08C91D095D82382
:1004F00002C0EC91DE2BDC939FBFDF91CF911F9167
:100500000895CF93DF9390E0FC01E456FE4F2491D1
:10051000FC01EA5AFE4F8491882361F190E0880F34
:10052000991FFC01E85FFE4FC591D491FC01EE5D7F
:10053000FE4FA591B491611109C09FB7F8948881CD
:10054000209582238883EC912E230BC0623061F4C6
:100550009FB7F8948881322F309583238883EC915C
:100560002E2B2C939FBF06C08FB7F894E8812E2BBB
:1005700028838FBFDF91CF910895862F642FC1CF3D
:10058000862F642F90CF862F66CFCF92DF92EF9287
:10059000FF920F931F93CF93DF936C017A018B012E
:1005A000C0E0D0E0CE15DF0581F0D8016D918D015E
:1005B000D601ED91FC910190F081E02DC6011995D5
:1005C000892B11F02196EECF7E01C701DF91CF91EB
:1005D0001F910F91FF90EF90DF90CF9008950895B5
:1005E00080E090E00895FC01538D448D252F30E08C
:1005F000842F90E0821B930B541710F0CF96089530
:1006000001970895FC01918D828D981761F0828D7C
:10061000DF01A80FB11D5D968C91928D9F5F9F7336
:10062000928F90E008958FEF9FEF0895FC01918DD8
:10063000828D981731F0828DE80FF11D858D90E045
:1006400008958FEF9FEF0895FC01918D228D892FE2
:1006500090E0805C9F4F821B91098F7399270895CA
:1006600081E492E0F1DF21E0892B09F420E0822F80
:100670000895FC01848DDF01A80FB11DA35ABF4F5F
:100680002C91848D90E001968F739927848FA68991
:10069000B7892C93A089B1898C91837080648C93E5
:1006A000938D848D981306C00288F389E02D808194
:1006B0008F7D80830895EF92FF920F931F93CF93C6
:1006C000DF93EC0181E0888F9B8D8C8D981305C0A2
:1006D000E889F989808185FD25C0F62E0B8D10E013
:1006E0000F5F1F4F0F731127E02E8C8DE8120BC088
:1006F0000FB607FCFACFE889F989808185FFF5CF2D
:10070000CE01B7DFF2CF8B8DFE01E80FF11DE35A6A
:10071000FF4FF0829FB7F8940B8FEA89FB898081A5
:1007200080620AC09FB7F894EE89FF896083E889E8
:10073000F98980818370806480839FBF81E090E02D
:10074000DF91CF911F910F91FF90EF900895CF937C
:10075000DF93EC01888D8823C1F0EA89FB898081D1
:1007600085FD05C0A889B9898C9186FD0EC00FB69C
:1007700007FCF5CF808185FFF2CFA889B9898C91DC
:1007800085FFEDCFCE0175DFE8CFDF91CF910895E2
:1007900080E090E0892B19F063DF811125C080E0B3
:1007A00090E0892B41F080E090E0892B21F00E94BD
:1007B000000081111CC080E090E0892B41F080E0B6
:1007C00090E0892B21F00E940000811113C080E08D
:1007D00090E0892BA1F080E090E0892B81F00E94CD
:1007E000000081110AC008950E940000D8CF0E9425
:1007F0000000E1CF0E940000EACF0C9400000895B1
:1008000027D31F920F920FB60F9211242F933F936D
:100810008F939F93AF93BF9380913D0290913E023F
:10082000A0913F02B091400230913C0223E0230F9F
:100830002D3720F40196A11DB11D05C026E8230F18
:100840000296A11DB11D20933C0280933D0290931E
:100850003E02A0933F02B0934002809138029091F3
:100860003902A0913A02B0913B020196A11DB11D3F
:100870008093380290933902A0933A02B0933B02DE
:10088000BF91AF919F918F913F912F910F900FBE8C
:100890000F901F9018951F920F920FB60F92112470
:1008A0000BB60F922F933F934F935F936F937F936A
:1008B0008F939F93AF93BF93EF93FF9381E492E065
:1008C000D8DEFF91EF91BF91AF919F918F917F9172
:1008D0006F915F914F913F912F910F900BBE0F90B1
:1008E0000FBE0F901F9018951F920F920FB60F9288
:1008F00011240BB60F922F938F939F93EF93FF9337
:10090000E0915102F09152028081E0915702F09102
:10091000580282FD12C0908180915A028F5F8F73BE
:1009200020915B02821751F0E0915A02F0E0EF5BF8
:10093000FD4F958F80935A0201C08081FF91EF9106
:100940009F918F912F910F900BBE0F900FBE0F9024
:100950001F901895109244021092430288EE93E083
:10096000A0E0B0E08093450290934602A093470236
:10097000B09348028CE192E090934202809341024E
:1009800085EC90E090934E0280934D0284EC90E0D1
:100990009093500280934F0280EC90E0909352022B
:1009A0008093510281EC90E0909354028093530223
:1009B00082EC90E0909356028093550286EC90E092
:1009C000909358028093570210925A0210925B0241
:1009D00010925C0210925D021092E0021092E4020A
:1009E0001092E3021092E5028EE292E09093DF0211
:1009F0008093DE02EEEDF2E0148E10A2178E11A2AB
:100A0000369683E0EA31F807B9F784E092E09093F4
:100A100041038093400380E092E0909343038093EE
:100A2000420384E0809344038093450388E092E08E
:100A300090933F0380933E038AE090E090934703B6
:100A40008093460384EF91E0909349038093480399
:100A500010924C0310924B0310923A0310923B03F6
:100A600010923C0310923D0310924A03089578942B
:100A700084B5826084BD84B5816084BD85B58260A3
:100A800085BD85B5816085BD80916E008160809354
:100A90006E001092810080918100826080938100BD
:100AA00080918100816080938100809180008160CD
:100AB000809380008091B10084608093B100809128
:100AC000B00081608093B00080919100826080933B
:100AD00091008091910081608093910080919000BD
:100AE0008160809390008091A10082608093A1003A
:100AF0008091A10081608093A1008091A00081601D
:100B00008093A000809121018260809321018091D7
:100B10002101816080932101809120018160809377
:100B2000200180917A00846080937A0080917A001D
:100B3000826080937A0080917A00816080937A004D
:100B400080917A00806880937A001092C100E091D1
:100B50005102F091520282E08083E0914D02F091C7
:100B60004E021082E0914F02F09150028FEC808390
:100B700010925902E0915502F091560286E080836E
:100B8000E0915302F0915402808180618083E09172
:100B90005302F0915402808188608083E091530277
:100BA000F0915402808180688083E0915302F0913B
:100BB000540280818F7D808322242394412C512CE8
:100BC00032014394CC24CA94DC2C66E0362E209269
:100BD0004A038FB7F89440913D0250913E026091D4
:100BE0003F02709140028FBF80913A0390913B0386
:100BF000A0913C03B0913D03481B590B6A0B7B0B42
:100C00008091460390914703A0E0B0E084179507D8
:100C1000A607B70708F0EAC0C0E080914403C817F0
:100C200010F0912C3CC0E0914003F0914103EC0F97
:100C3000F11D62E0808165DCCF5FEFCFC82DD0E091
:100C4000E0914003F0914103EC0FFD1F808103DC34
:100C50002496CC0FDD1FC252DD4F892B09F047C00F
:100C6000888199818A299B2999838883839480919B
:100C70004403881618F3E0914203F0914303E00F18
:100C8000F11F61E080810FDC80914203909143036A
:100C9000FC01E00FF11F60E0808133DC93948091D0
:100CA0004503981648F5092D10E0E0914203F091B4
:100CB0004303E00FF11F61E0808123DCE0914203F8
:100CC000F0914303E00FF11F60E08081ECDBD30182
:100CD000C201092C04C0880F991FAA1FBB1F0A94C8
:100CE000D2F75C017C01E094F094812CC0CF888124
:100CF00099818E219F21B8CFCEEDD2E0FE01878D64
:100D000090A1892B21F4148ED68EC58E11A2369611
:100D100023E0EA31F20799F710E0809144031817B5
:100D200070F500E0E12EF12CC701880F991FFC013E
:100D3000EA51FD4F7F01209145030217F0F4F701BE
:100D400040815181002E02C0569547950A94E2F7E2
:100D5000642F6170129F90011124200F311DEEED60
:100D6000F2E080E0A58DB68D2A173B0709F45FC03D
:100D70008F5F36968A30B1F73DC01F5FCECF80E0DF
:100D800099A1911181E02696F3E0CA31DF07C1F7FE
:100D90009FB7F89440913D0250913E0260913F020E
:100DA000709140029FBF40933A0350933B0360937E
:100DB0003C0370933D038823C9F08091FF02882390
:100DC000A9F08091FD029091FE02019779F4609163
:100DD000FA02662369F081E492E06DDC42E050E0C3
:100DE00064E372E081E492E0D0DB02C010924A0337
:100DF000CFDCEDCE40FF1CC0EEEDF2E080E090E0F5
:100E0000448D411117C0E0913E03F0913F03E20F82
:100E1000F31F7081389EA001399E500D1124FA01F4
:100E2000E252FD4F748F368F258F10A2178E4FDA46
:100E30000F5F81CF019636968A30910509F7F8CF7A
:100E4000EE0FFF1F881F8BBF0790F691E02D1994BE
:0C0E500081E090E0F89400C0F894FFCF1F
:100E5C0006070809020304053132334134353642A2
:100E6C00373839432A302344000000005B03C502A5
:100E7C00F302A70324030203160300000000BD02C3
:080E8C00C002C3020D0A0000C0
:00000001FF
