:100000000C945C000C946E000C946E000C946E00CA
:100010000C946E000C946E000C946E000C946E00A8
:100020000C946E000C946E000C946E000C946E0098
:100030000C946E000C946E000C946E000C946E0088
:100040000C945F010C946E000C946E000C946E0086
:100050000C946E000C946E000C946E000C946E0068
:100060000C946E000C946E00000000002400270029
:100070002A0000000000250028002B0004040404CE
:100080000404040402020202020203030303030342
:10009000010204081020408001020408102001021F
:1000A00004081020000000080002010000030407FB
:1000B000000000000000000011241FBECFEFD8E0B8
:1000C000DEBFCDBF21E0A0E0B1E001C01D92AA30AB
:1000D000B207E1F70E94A9010C9446020C940000BB
:1000E000EEEAF0E09491EAE9F0E02491E6E8F0E04D
:1000F000E491EE2309F43CC0992339F1933091F057
:1001000038F49130A9F0923001F594B59F7D12C07A
:10011000973091F09830A1F09430B9F4909180002C
:100120009F7D03C0909180009F77909380000DC0C9
:1001300094B59F7794BD09C09091B0009F7703C09C
:100140009091B0009F7D9093B000F0E0EE0FFF1F04
:10015000EE58FF4FA591B4919FB7F894811104C058
:100160008C912095282302C0EC912E2B2C939FBFBD
:10017000089590E0FC01E057FF4F2491FC01E45802
:10018000FF4F8491882399F090E0880F991FFC011C
:10019000E859FF4FA591B491FC01EE58FF4F8591AE
:1001A00094918FB7F894EC91E22BEC938FBF089564
:1001B0003FB7F8948091060190910701A091080142
:1001C000B091090126B5A89B05C02F3F19F00196F3
:1001D000A11DB11D3FBFBA2FA92F982F8827820FCD
:1001E000911DA11DB11DBC01CD0142E0660F771F1D
:1001F000881F991F4A95D1F708958F929F92AF92C9
:10020000BF92CF92DF92EF92FF926B017C010E942E
:10021000D8004B015C01C114D104E104F104F1F0F8
:100220000E94D800DC01CB0188199909AA09BB09F1
:10023000883E9340A105B10570F321E0C21AD108B0
:10024000E108F10888EE880E83E0981EA11CB11C1D
:10025000C114D104E104F10419F7DDCFFF90EF9050
:10026000DF90CF90BF90AF909F908F9008958EBDFC
:1002700000000DB407FEFDCF8EB50895CF93DF9338
:10028000D82FC62F80E00E94700061E070E080E00F
:1002900090E00E94FD0080E40E9437018D2F0E94B3
:1002A00037018C2F0E94370161E070E080E090E020
:1002B0000E94FD0081E0DF91CF910C9470001F92AD
:1002C0000F920FB60F9211242F933F938F939F930A
:1002D000AF93BF938091020190910301A09104011B
:1002E000B09105013091010123E0230F2D3720F457
:1002F0000196A11DB11D05C026E8230F0296A11D80
:10030000B11D209301018093020190930301A093FA
:100310000401B09305018091060190910701A0911D
:100320000801B09109010196A11DB11D809306013C
:1003300090930701A0930801B0930901BF91AF9179
:100340009F918F913F912F910F900FBE0F901F9013
:100350001895789484B5826084BD84B5816084BD2D
:1003600085B5826085BD85B5816085BD80916E0053
:10037000816080936E001092810080918100826084
:1003800080938100809181008160809381008091C1
:1003900080008160809380008091B10084608093B0
:1003A000B1008091B00081608093B00080917A00AC
:1003B000846080937A0080917A00826080937A00D2
:1003C00080917A00816080937A0080917A008068C1
:1003D00080937A001092C100CFB7F8948091000109
:1003E000811123C0E6E8F0E08491EAE9F0E094911D
:1003F000E82FF0E0EE0FFF1FE859FF4FA591B491F1
:10040000EC91E92319F481E00E9470008AE00E94D7
:10041000B9008CB580618CBD8CB580648CBD8DE0DD
:100420000E94B9008BE00E94B900809100018F5FAB
:1004300080930001CFBF8AE00E94B90081E00E9452
:10044000700060E070E080E090E00E943E01C0E05B
:10045000D0E06FEF70E089E090E00E943E0168EE2E
:1004600073E080E090E00E94FD0060E070E089E0D1
:1004700090E00E943E0168EE73E080E090E00E9410
:10048000FD00209731F30E940000E3CFF894FFCFE6
:00000001FF
