:100000000C9458000C9480000C9480000C94800098
:100010000C9480000C9480000C9480000C94800060
:100020000C9480000C9480000C9480000C94800050
:100030000C9480000C9480000C9480000C94800040
:100040000C9496020C9480000C9406030C94E0022D
:100050000C9480000C9480000C9480000C94800020
:100060000C9438030C948000000000002500280048
:100070002B00040404040404040402020202020229
:10008000030303030303010204081020408001025C
:1000900004081020010204081020000000080002DB
:1000A00001000003040700000000000000006604D7
:1000B00011241FBECFEFD8E0DEBFCDBF11E0A0E01E
:1000C000B1E0E2EDFCE002C005900D92A832B1076C
:1000D000D9F722E0A8E2B1E001C01D92AE38B20724
:1000E000E1F710E0C8E5D0E004C02197FE010E94CE
:1000F0005C06C735D107C9F70E949F040C946706B8
:100100000C94000090E0FC01E656FF4F2491FC01A6
:10011000EA57FF4F3491FC01EE58FF4FE491EE2374
:10012000B1F1222339F1233091F038F42130A9F0D4
:10013000223001F584B58F7D12C0273091F0283030
:10014000A1F02430B9F4809180008F7D03C08091AC
:1001500080008F77809380000DC084B58F7784BD39
:1001600009C08091B0008F7703C08091B0008F7D6F
:100170008093B000F0E0EE0FFF1FE859FF4FA5910C
:10018000B4918FB7F894EC91E32BEC938FBF089563
:100190008091DB0190E02091DA01821B91090895A2
:1001A00008950895CF92DF92EF92FF920F931F93DD
:1001B000CF93DF936C017A018B01C0E0D0E0CE15C4
:1001C000DF0581F0D8016D918D01D601ED91FC9193
:1001D0000190F081E02DC6010995892B11F021963F
:1001E000EECF7E01C701DF91CF911F910F91FF905C
:1001F000EF90DF90CF900895FC01538D448D252F13
:1002000030E0842F90E0821B930B541710F0CF96B0
:10021000089501970895FC01918D828D981761F0E2
:10022000828DDF01A80FB11D5D968C91928D9F5F2D
:100230009F73928F90E008958FEF9FEF0895FC01D8
:10024000918D828D981731F0828DE80FF11D858D8B
:1002500090E008958FEF9FEF0895FC01918D228D1E
:10026000892F90E0805C9F4F821B91098F739927A3
:10027000089585EE91E00E942D0121E0892B09F47B
:1002800020E0822F0895FC01848DDF01A80FB11DAD
:10029000A35ABF4F2C91848D90E001968F739927BC
:1002A000848FA689B7892C93A089B1898C9183709A
:1002B00080648C93938D848D981306C00288F38993
:1002C000E02D80818F7D80830895EF92FF920F93C0
:1002D0001F93CF93DF93EC0181E0888F9B8D8C8DF2
:1002E000981305C0E889F989808185FD26C0F62E1E
:1002F0000B8D10E00F5F1F4F0F731127E02E8C8DB9
:10030000E8120CC00FB607FCFACFE889F9898081A2
:1003100085FFF5CFCE010E944301F1CF8B8DFE0109
:10032000E80FF11DE35AFF4FF0829FB7F8940B8F4F
:10033000EA89FB89808180620AC09FB7F894EE89C0
:10034000FF896083E889F989808183708064808374
:100350009FBF81E090E0DF91CF911F910F91FF90BF
:10036000EF900895CF93DF93EC01888D8823C9F037
:10037000EA89FB89808185FD05C0A889B9898C91AE
:1003800086FD0FC00FB607FCF5CF808185FFF2CF49
:10039000A889B9898C9185FFEDCFCE010E944301D8
:1003A000E7CFDF91CF91089580E090E0892B29F08D
:1003B0000E94390181110C940000089585ED80930D
:1003C000BC008091BC0084FDFCCF1092B90108955F
:1003D00040914801262F30E0240F311D2132310594
:1003E000DCF42091B9012430C9F4FC0180E090E0F4
:1003F000861758F4309148012191DC01A85DBE4F69
:10040000A30FB11D2C930196F3CF80914801680F83
:100410006093480180E0089581E0089582E00895A6
:100420000895E091DA018091DB01E81730F4F0E003
:10043000E654FE4F808190E008958FEF9FEF08957E
:100440009091DA018091DB01981750F4E92FF0E0E8
:10045000E654FE4F208130E09F5F9093DA0102C0A6
:100460002FEF3FEFC9010895CF92DF92EF92FF92F5
:100470000F931F93CF93DF937C01CB018A012091CF
:100480006F01222389F0EB016B01C40ED51ECC1540
:10049000DD0569F06991D701ED91FC910190F08142
:1004A000E02DC7010995F3CF642F0E94E801C80130
:1004B000DF91CF911F910F91FF90EF90DF90CF9040
:1004C0000895CF93DF931F92CDB7DEB76983209154
:1004D0006F012223D1F020919201203240F021E0DF
:1004E00030E0FC013383228380E090E015C08091EE
:1004F0007001E82FF0E0EF58FE4F998190838F5FF5
:10050000809370018093920105C061E0CE01019655
:100510000E94E80181E090E00F90DF91CF91089573
:10052000089580E090E008950E9462061F920F9265
:100530000FB60F9211242F933F938F939F93AF93F6
:10054000BF938091E1019091E201A091E301B0910C
:10055000E4013091E00123E0230F2D3720F40196D0
:10056000A11DB11D05C026E8230F0296A11DB11DD6
:100570002093E0018093E1019093E201A093E301D5
:10058000B093E4018091DC019091DD01A091DE0146
:10059000B091DF010196A11DB11D8093DC01909304
:1005A000DD01A093DE01B093DF01BF91AF919F9178
:1005B0008F913F912F910F900FBE0F901F90189524
:1005C0001F920F920FB60F9211242F933F934F93C8
:1005D0005F936F937F938F939F93AF93BF93EF93AB
:1005E000FF9385EE91E00E944301FF91EF91BF914F
:1005F000AF919F918F917F916F915F914F913F91BB
:100600002F910F900FBE0F901F9018951F920F9271
:100610000FB60F9211242F938F939F93EF93FF9315
:10062000E091F501F091F6018081E091FB01F091FC
:10063000FC0182FD12C090818091FE018F5F8F735B
:100640002091FF01821751F0E091FE01F0E0EB51A3
:10065000FE4F958F8093FE0101C08081FF91EF9145
:100660009F918F912F910F900FBE0F901F90189513
:100670001F920F920FB60F9211242F933F934F9317
:100680005F936F937F938F939F93AF93BF93EF93FA
:10069000FF938091B900887F803609F49CC068F58B
:1006A000883209F45BC090F4803109F454C038F406
:1006B000882309F4F6C0883009F44DC0F6C08831AB
:1006C00009F44CC0803209F45DC0EFC0803409F4F5
:1006D00068C048F4803309F455C0883309F0E5C098
:1006E0008093B701D8C0803509F44FC0883509F42C
:1006F0005DC0883409F0D9C0D6C0883909F4C7C0B4
:10070000A8F4883709F467C038F4883609F463C060
:10071000803709F460C0C9C0883809F4B8C080398E
:1007200009F45FC0803809F0C0C05BC0803B09F4A9
:1007300086C038F4803A09F466C0883A09F47FC06C
:10074000B4C0803C09F4A7C0883C09F4A4C0883B2D
:1007500009F48AC0AAC08091B40110C09091B6017A
:100760008091B501981770F5E091B60181E08E0F88
:100770008093B601F0E0ED56FE4F80818093BB0080
:1007800085EC86C08093B7018EC0E091B60181E010
:100790008E0F8093B6018091BB00F0E0ED56FE4FC6
:1007A00080839091B6018091B5016EC0E091B60151
:1007B00081E08E0F8093B6018091BB00F0E0ED5692
:1007C000FE4F80838091B80181116DC081E08093DC
:1007D000B30184EA61C083E08093B90110926A0199
:1007E000CFCF80916A01803208F051C0E0916A0158
:1007F00081E08E0F80936A018091BB00F0E0E65BA0
:10080000FE4F8083BDCF85EC8093BC001092B90170
:1008100080916A01803230F4E0916A01F0E0E65B99
:10082000FE4F108260916A0170E0E0916B01F091DF
:100830006C018AE491E0099510926A0136C084E067
:100840008093B9011092490110924801E0916D0125
:10085000F0916E01099580914801811105C081E0F8
:100860008093480110922801E091490181E08E0FA8
:1008700080934901F0E0E85DFE4F80818093BB00EA
:100880009091490180914801981708F479CF85E843
:100890008093BC000AC085EC8093BC001092B90123
:1008A00004C01092B7010E94DE01FF91EF91BF9149
:1008B000AF919F918F917F916F915F914F913F91F8
:1008C0002F910F900FBE0F901F901895E5EEF1E05D
:1008D0001382128288EE93E0A0E0B0E084839583D7
:1008E000A683B78324E031E03183208325EC30E018
:1008F0003587248724EC30E03787268720EC30E0EA
:10090000318B208B21EC30E0338B228B22EC30E0DA
:10091000358B248B26EC30E0378B268B118E128E94
:10092000138E148EE2E8F2E01382128284839583A0
:10093000A683B78386E191E0918380830895CF9366
:10094000DF93CDB7DEB7A1970FB6F894DEBF0FBE29
:10095000CDBF789484B5826084BD84B5816084BD48
:1009600085B5826085BD85B5816085BD80916E004D
:10097000816080936E00109281008091810082607E
:1009800080938100809181008160809381008091BB
:1009900080008160809380008091B10084608093AA
:1009A000B1008091B00081608093B00080917A00A6
:1009B000846080937A0080917A00826080937A00CC
:1009C00080917A00816080937A0080917A008068BB
:1009D00080937A001092C1001092DA011092DB012C
:1009E00010927001109292011092B90111E01093CF
:1009F000B8011092B30182E10E94820083E10E945B
:100A000082008091B9008E7F8093B9008091B900F7
:100A10008D7F8093B90088E48093B80085E480934B
:100A2000BC0080ED90E090936E0180936D0181EDAC
:100A300090E090936C0180936B0110936F0180E2C2
:100A40008093910110927001109292016FEF82E8F1
:100A500092E00E94610290919201913208F044C0AC
:100A60008091B9018111FCCF82E08093B90181E0CE
:100A70008093B8018FEF8093B7011092B6019093E5
:100A8000B501E1E7F1E0A3E9B1E080E0981721F0DA
:100A900021912D938F5FFACF1092B4018091B40110
:100AA00080648093B4018091B301813061F410922D
:100AB000B3018091B4018093BB008091BC0083FDA1
:100AC000F8CF85EC01C085EE8093BC008091B90120
:100AD0008230E1F38091B7018F3F31F08091B7010F
:100AE000803211F08091B701109270011092920142
:100AF00010926F01E091F501F091F60182E08083A0
:100B0000E091F101F091F2011082E091F301F09196
:100B1000F4018FEC80831092FD01E091F901F091D6
:100B2000FA0186E08083E091F701F091F80180817D
:100B300080618083E091F701F091F8018081886005
:100B40008083E091F701F091F801808180688083D3
:100B5000E091F701F091F80180818F7D8083FF247F
:100B6000F394EE24EA9485EED82E95ECC92E2AE073
:100B7000822E912CA12CB12C8091B9018111FCCF36
:100B8000F092B901F092B801E092B7011092B6016B
:100B90001092B501F092B4018091B4018064809309
:100BA000B4018091B301813069F41092B301809156
:100BB000B4018093BB008091BC0083FDF8CFC0924C
:100BC000BC0002C0D092BC008091B9018130E1F339
:100BD0008091B601811103C09091B60101C091E0EE
:100BE000A3E9B1E0EAEBF1E080E0891721F02D9173
:100BF00021938F5FFACF1092DA018093DB019091FD
:100C0000DB018091DA01981791F182E892E00E946D
:100C10002002282F30E040E050E019A28E010F5D45
:100C20001F4FCA01B901A50194010E943A06605DF7
:100C3000F80162938F01211531054105510589F7AE
:100C4000309761F001900020E9F73197AF01401B28
:100C5000510BB80185EE91E00E94D20042E050E0D5
:100C600064E271E085EE91E00E94D200C8CF0E945C
:100C7000D40182CFA1E21A2EAA1BBB1BFD010DC01D
:100C8000AA1FBB1FEE1FFF1FA217B307E407F5073C
:100C900020F0A21BB30BE40BF50B661F771F881F18
:100CA000991F1A9469F760957095809590959B01AE
:100CB000AC01BD01CF010895EE0FFF1F0590F49127
:100CC000E02D099481E090E0F8940C946706F89484
:020CD000FFCF54
:100CD200000000006501D200FC00B2012D010B01F1
:100CE2001F01000000006102340291021002C800DC
:080CF200200211020D0A0000AE
:00000001FF
